:020000020000FC
:020000004DC2EF
:1000AC000000000000000000000000000000000044
:1000BC000000000000000000000000000000000034
:1000CC000895000000000000000000000000000087
:1000DC000000000000000000000000000000000014
:1000EC0000008A958F3F69F70895382F8AEFE9DF72
:1000FC008AEFE7DF8AEFE5DF8AEFE3DF3A9531300D
:10010C00A9F70895282F8AEFF0DF8AEFEEDF8AEF48
:10011C00ECDF8AEFEADF2A952030A9F78AEFE5DFDA
:10012C008AEFE3DF089581BB5F9ABADF5F98089589
:10013C005E98F9DF8295F7DF8DE2C3DF08955E9A52
:10014C00F2DF8295F0DF8DE2BCDF089584E1CDDF34
:10015C005E9880E3E8DF8AE0C8DF80E3E4DF8AE0D2
:10016C00C4DF80E3E0DF8AE0C0DF80E2DCDF8DE229
:10017C00A8DF88E2DDDF8FE0DBDF81E0D9DF82E022
:10018C00B4DF86E0D5DF089500278591803011F02B
:10019C00D6DFFBCF08958F9381E0CADF84E1A5DF22
:1001AC008F910895F1E0EEEBE80F80E0F81F849159
:1001BC0008953134372A3235383033363923479A5B
:1001CC0020E0322F330F330F330F330F35B98AE062
:1001DC008CDF669904C023952C3099F72FE0822F81
:1001EC0047980895436C656172696E672E2E2E00D8
:1001FC00546F74616C3A200023203127733A20002D
:10020C0023203227733A200023203327733A20000F
:10021C0023203427733A200023203527733A2000FB
:10022C0023203627733A2000F6D00895303132332C
:10023C00343536373839414243444546F2E0E8E339
:10024C00582E82958F70E80F6624F61D849177DF07
:10025C00852D8F70E8E3F2E0E80F6624F61D84919B
:10026C006EDF0895482F483C20F082E368DF485C3D
:10027C0008C0443620F081E362DF445602C080E3BC
:10028C005EDF01E01AE08894411718F00395165FC1
:10029C00FACF1A50411B4F930A95802F805D4FDF88
:1002AC008F91805D4CDF089576DFF1E0ECEF6CDF31
:1002BC0080E0ACD08F93C2DF88E241DF8F91D2DF38
:1002CC0089E23DDF2BDF67DFF2E0E4E05DDF81E018
:1002DC009DD08F93B3DF88E232DF8F91C3DF89E249
:1002EC002EDF1CDF58DFF2E0ECE04EDF82E08ED038
:1002FC008F93A4DF88E223DF8F91B4DF89E21FDFC5
:10030C000DDF49DFF2E0E4E13FDF83E07FD08F9344
:10031C0095DF88E214DF8F91A5DF89E210DFFEDE26
:10032C003ADFF2E0ECE130DF84E070D08F9386DFCF
:10033C0088E205DF8F9196DF89E201DFEFDE2BDFAC
:10034C00F2E0E4E221DF85E061D08F9377DF88E291
:10035C00F6DE8F9187DF89E2F2DEE0DE1CDFF2E071
:10036C00ECE212DF86E052D08F9368DF88E2E7DEA2
:10037C008F9178DF89E2E3DED1DE0DDF08954D6FDA
:10038C006E69746F720008951ADF833049F08B30F8
:10039C0039F08F3011F4382EF7CF8315A9F3382E9E
:1003AC0008958EE3CCDE8B2F49DF8A2F47DF8AE35B
:1003BC00C6DE0895F0DEF3E0EAE8E6DE96DEB0E0B5
:1003CC00A0E0E9DEEEDF8D918F9338DF88E2B7DEB7
:1003DC008F9148DF89E2B3DED7DF833051F08B3069
:1003EC0029F0E0DE8053B82FAA27EBCF88EC7DDE16
:1003FC00E8CF0895C0E0D1E08F93888183958883FE
:10040C008F91C80F8881839588830895C0E0D1E0CF
:10041C00C80F88810895BFDEF1E0E0EFB5DEC0E0E3
:10042C00D1E080E08993C830E1F7089506E0000040
:10043C000000C5DE843009F008950A95B9F3F7CFB2
:10044C0057656C636F6D6520746F2064696365001C
:10045C005072657373203220746F20726F6C6C0055
:10046C00526F6C6C696E672E2E2E2E005374617455
:10047C00733A2000436C656172696E672E2E2E00F4
:10048C004D6F6E69746F7220707265737365640062
:10049C000FEF0DBF0AE00EBF0E94570257DEC4DEFD
:1004AC0021C020E02DB92EB90FEF07B900BB04B95C
:1004BC000AB90895F4E0ECE467DE0895F4E0ECE5A5
:1004CC0063DE0895F4E0ECE65FDE0895F4E0E8E71F
:1004DC005BDE0895F4E0E0E857DE0895F4E0ECE824
:1004EC0053DE089580E824DE19DEE4DF17DE80ECAD
:1004FC001FDE14DEE3DF12DE62DE9817C1F38430F8
:10050C0039F0883099F08630C9F08A30F1F0EFCFAD
:10051C0042DE80E80DDED6DF89DF802F8F936ADF25
:10052C008F91805D0CDE81E0F9DDE1CF34DE80E877
:10053C00FFDDCCDFF3DDB8DEF1DDD9CF2CDE80E8DA
:10054C00F7DDC8DF68DFEADDD2CF25DE80E832DFF9
:10055C00E5DDCDCF0E94E5009817E1F3982F8F30A1
:10056C00C9F38A301CF4805DEADDF4CF895C0C940D
:04057C00BA02FFCFF1
:00000001FF
